




===== LOG START 2026-02-21T14:34:28.585Z pid=2849842 =====




2026-02-21T14:34:28.585Z  INFO  Starting the bot...
2026-02-21T14:34:28.630Z  INFO  wallet address 0xbEd313808B26F2873D0e2BE946DB614E8477424C
[CLOB Client] request error {"status":400,"statusText":"Bad Request","data":{"error":"Could not create api key"},"config":{"transitional":{"silentJSONParsing":true,"forcedJSONParsing":true,"clarifyTimeoutError":false},"transformRequest":[null],"transformResponse":[null],"timeout":0,"xsrfCookieName":"XSRF-TOKEN","xsrfHeaderName":"X-XSRF-TOKEN","maxContentLength":-1,"maxBodyLength":-1,"env":{},"headers":{"Accept":"*/*","Content-Type":"application/json","POLY_ADDRESS":"0xbEd313808B26F2873D0e2BE946DB614E8477424C","POLY_SIGNATURE":"0x8d208b389855cff65ffe1afaff392204799448b8e6347784ddba5fc6e1fcda082816262f5adfa60335912c29bcb901f44793d3a8646e70453eb0715cca4b90eb1b","POLY_TIMESTAMP":"1771684468","POLY_NONCE":"0","User-Agent":"@polymarket/clob-client","Connection":"keep-alive"},"method":"post","url":"https://clob.polymarket.com/auth/api-key","params":{}}}
2026-02-21T14:34:28.880Z  SUCCESS  Credential created successfully
2026-02-21T14:34:28.882Z  INFO  Credentials ready
2026-02-21T14:34:28.887Z  INFO  Approving USDC allowances to Polymarket contracts...
2026-02-21T14:34:29.860Z  INFO  Approving USDC allowances for address: 0xbEd313808B26F2873D0e2BE946DB614E8477424C, chainId: 137
2026-02-21T14:34:29.861Z  INFO  RPC: https://rpc-mainnet.matic.quiknode.pro
2026-02-21T14:34:29.861Z  INFO  USDC Contract: 0x2791Bca1f2de4661ED88A30C99A7a9449Aa84174
2026-02-21T14:34:29.861Z  INFO  ConditionalTokens Contract: 0x4D97DCd97eC945f40cF65F87097ACe5EA0476045
2026-02-21T14:34:29.861Z  INFO  Exchange Contract: 0x4bFb41d5B3570DeFd03C39a9A4D8dE6Bd8B8982E
2026-02-21T14:34:30.240Z  INFO  Current CTF allowance: 0, setting to MaxUint256...
2026-02-21T14:34:31.200Z  ERROR  Failed to approve USDC allowances: insufficient funds for intrinsic transaction cost [ See: https://links.ethers.org/v5-errors-INSUFFICIENT_FUNDS ] (error={"reason":"processing response error","code":"SERVER_ERROR","body":"{\"jsonrpc\":\"2.0\",\"id\":56,\"error\":{\"code\":-32000,\"message\":\"insufficient funds for gas * price + value: balance 0, tx cost 37053933862000000, overshot 37053933862000000\"}}\n","error":{"code":-32000},"requestBody":"{\"method\":\"eth_sendRawTransaction\",\"params\":[\"0x02f8b3818980852b22eecdbe852b22eecdbe83030d40942791bca1f2de4661ed88a30c99a7a9449aa8417480b844095ea7b30000000000000000000000004d97dcd97ec945f40cf65f87097ace5ea0476045ffffffffffffffffffffffffffffffffffffffffffffffffffffffffffffffffc001a05ed2214cde0b071b9baec84a7d25a95ea63b00cc87a57c802c16954e5a0c8707a03a01f6b09c66f4e12c58b3ed1935d667c737b6fb2a177bad6874ec007e6505e3\"],\"id\":56,\"jsonrpc\":\"2.0\"}","requestMethod":"POST","url":"https://rpc-mainnet.matic.quiknode.pro"}, method="sendTransaction", transaction="0x02f8b3818980852b22eecdbe852b22eecdbe83030d40942791bca1f2de4661ed88a30c99a7a9449aa8417480b844095ea7b30000000000000000000000004d97dcd97ec945f40cf65f87097ace5ea0476045ffffffffffffffffffffffffffffffffffffffffffffffffffffffffffffffffc001a05ed2214cde0b071b9baec84a7d25a95ea63b00cc87a57c802c16954e5a0c8707a03a01f6b09c66f4e12c58b3ed1935d667c737b6fb2a177bad6874ec007e6505e3", code=INSUFFICIENT_FUNDS, version=providers/5.8.0)
2026-02-21T14:34:31.200Z  WARNING  Continuing without allowances - orders may fail
2026-02-21T14:34:31.424Z  INFO  â•â•â•â•â•â•â•â•â•â•â•â•â•â•â•â•â•â•â•â•â•â•â•â•â•â•â•â•â•â•â•â•â•â•â•â•â•â•â•
2026-02-21T14:34:31.424Z  INFO  ðŸ’° WALLET BALANCE & ALLOWANCE
2026-02-21T14:34:31.425Z  INFO  â•â•â•â•â•â•â•â•â•â•â•â•â•â•â•â•â•â•â•â•â•â•â•â•â•â•â•â•â•â•â•â•â•â•â•â•â•â•â•
2026-02-21T14:34:31.425Z  INFO  USDC Balance: 0.000000
2026-02-21T14:34:31.425Z  INFO  USDC Allowance: 0.000000
2026-02-21T14:34:31.425Z  INFO  Available: 0.000000 (Balance: 0.000000, Allowance: 0.000000)
2026-02-21T14:34:31.425Z  INFO  â•â•â•â•â•â•â•â•â•â•â•â•â•â•â•â•â•â•â•â•â•â•â•â•â•â•â•â•â•â•â•â•â•â•â•â•â•â•â•
2026-02-21T14:34:31.425Z  INFO  USDC gate: available=0.000000 (balance=0.000000, allowance=0.000000), required>=1

===== LOG END 2026-02-21T14:34:32.727Z pid=2849842 =====





===== LOG START 2026-02-21T19:04:35.986Z pid=2887453 =====




2026-02-21T19:04:35.986Z  INFO  Starting the bot...
2026-02-21T19:04:36.032Z  INFO  wallet address 0xbEd313808B26F2873D0e2BE946DB614E8477424C
[CLOB Client] request error {"status":400,"statusText":"Bad Request","data":{"error":"Could not create api key"},"config":{"transitional":{"silentJSONParsing":true,"forcedJSONParsing":true,"clarifyTimeoutError":false},"transformRequest":[null],"transformResponse":[null],"timeout":0,"xsrfCookieName":"XSRF-TOKEN","xsrfHeaderName":"X-XSRF-TOKEN","maxContentLength":-1,"maxBodyLength":-1,"env":{},"headers":{"Accept":"*/*","Content-Type":"application/json","POLY_ADDRESS":"0xbEd313808B26F2873D0e2BE946DB614E8477424C","POLY_SIGNATURE":"0x3c577e87e89bd43e964615144114ecf86a814c66c20f33723652d5bc0f95208c2c5e3e9d05de6546d9a5d982f3e39c85c4cfe195b434e95ef2f8df90f012de611c","POLY_TIMESTAMP":"1771700676","POLY_NONCE":"0","User-Agent":"@polymarket/clob-client","Connection":"keep-alive"},"method":"post","url":"https://clob.polymarket.com/auth/api-key","params":{}}}
2026-02-21T19:04:36.289Z  SUCCESS  Credential created successfully
2026-02-21T19:04:36.292Z  INFO  Credentials ready
2026-02-21T19:04:36.296Z  INFO  Approving USDC allowances to Polymarket contracts...
2026-02-21T19:04:37.160Z  INFO  Approving USDC allowances for address: 0xbEd313808B26F2873D0e2BE946DB614E8477424C, chainId: 137
2026-02-21T19:04:37.160Z  INFO  RPC: https://rpc-mainnet.matic.quiknode.pro
2026-02-21T19:04:37.160Z  INFO  USDC Contract: 0x2791Bca1f2de4661ED88A30C99A7a9449Aa84174
2026-02-21T19:04:37.160Z  INFO  ConditionalTokens Contract: 0x4D97DCd97eC945f40cF65F87097ACe5EA0476045
2026-02-21T19:04:37.160Z  INFO  Exchange Contract: 0x4bFb41d5B3570DeFd03C39a9A4D8dE6Bd8B8982E
2026-02-21T19:04:37.540Z  INFO  Current CTF allowance: 0, setting to MaxUint256...
2026-02-21T19:04:38.465Z  ERROR  Failed to approve USDC allowances: insufficient funds for intrinsic transaction cost [ See: https://links.ethers.org/v5-errors-INSUFFICIENT_FUNDS ] (error={"reason":"processing response error","code":"SERVER_ERROR","body":"{\"jsonrpc\":\"2.0\",\"id\":56,\"error\":{\"code\":-32000,\"message\":\"insufficient funds for gas * price + value: balance 0, tx cost 27759154122600000, overshot 27759154122600000\"}}\n","error":{"code":-32000},"requestBody":"{\"method\":\"eth_sendRawTransaction\",\"params\":[\"0x02f8b3818980852050df62f5852050df62f583030d40942791bca1f2de4661ed88a30c99a7a9449aa8417480b844095ea7b30000000000000000000000004d97dcd97ec945f40cf65f87097ace5ea0476045ffffffffffffffffffffffffffffffffffffffffffffffffffffffffffffffffc001a058850432c18e9cb73c0e043d9ebb303ece2d166140be5123f15f73428ff6606aa06b6e19e953337e7b924d4be9343848f15cd76354a00acd18c14f4b1d6c622357\"],\"id\":56,\"jsonrpc\":\"2.0\"}","requestMethod":"POST","url":"https://rpc-mainnet.matic.quiknode.pro"}, method="sendTransaction", transaction="0x02f8b3818980852050df62f5852050df62f583030d40942791bca1f2de4661ed88a30c99a7a9449aa8417480b844095ea7b30000000000000000000000004d97dcd97ec945f40cf65f87097ace5ea0476045ffffffffffffffffffffffffffffffffffffffffffffffffffffffffffffffffc001a058850432c18e9cb73c0e043d9ebb303ece2d166140be5123f15f73428ff6606aa06b6e19e953337e7b924d4be9343848f15cd76354a00acd18c14f4b1d6c622357", code=INSUFFICIENT_FUNDS, version=providers/5.8.0)
2026-02-21T19:04:38.465Z  WARNING  Continuing without allowances - orders may fail
2026-02-21T19:04:38.697Z  INFO  â•â•â•â•â•â•â•â•â•â•â•â•â•â•â•â•â•â•â•â•â•â•â•â•â•â•â•â•â•â•â•â•â•â•â•â•â•â•â•
2026-02-21T19:04:38.697Z  INFO  ðŸ’° WALLET BALANCE & ALLOWANCE
2026-02-21T19:04:38.697Z  INFO  â•â•â•â•â•â•â•â•â•â•â•â•â•â•â•â•â•â•â•â•â•â•â•â•â•â•â•â•â•â•â•â•â•â•â•â•â•â•â•
2026-02-21T19:04:38.698Z  INFO  USDC Balance: 0.000000
2026-02-21T19:04:38.698Z  INFO  USDC Allowance: 0.000000
2026-02-21T19:04:38.698Z  INFO  Available: 0.000000 (Balance: 0.000000, Allowance: 0.000000)
2026-02-21T19:04:38.698Z  INFO  â•â•â•â•â•â•â•â•â•â•â•â•â•â•â•â•â•â•â•â•â•â•â•â•â•â•â•â•â•â•â•â•â•â•â•â•â•â•â•
2026-02-21T19:04:38.698Z  INFO  USDC gate: available=0.000000 (balance=0.000000, allowance=0.000000), required>=1

===== LOG END 2026-02-21T19:04:39.889Z pid=2887453 =====
